:10000000B3C0E0C3C1C0C0C0BFC092C3BDC0BCC00C
:10001000BBC0BAC0B9C0B8C0B7C0B6C0B5C0000098
:10002000000037000000000038004354467B426F58
:100030006E7573466C6167466F7254686542726193
:1000400076657D0000D57FAAFE2B815429FC56835E
:10005000D702A87D52872DF8AC79D3067BAE04D1A8
:100060008550FA2FA471DB0E5A8F25F08D58F22798
:1000700073A60CD9F623895C08DD77A2DF0AA07588
:1000800021F45E8B9D48E23763B61CC9B461CB1E78
:100090004A9F35E0CF1AB06531E44E9BE633994C68
:1000A00018CD67B239EC4693C712B86D10C56FBA58
:1000B000EE3B91446BBE14C19540EA3F42973DE848
:1000C000BC69C316EF3A904511C46EBBC613B96C38
:1000D00038ED4792BD68C21743963CE99441EB3E28
:1000E0006ABF15C04B9E34E1B560CA1F62B71DC818
:1000F0009C49E33619CC66B3E732984D30E54F9A08
:10010000CE1BB16472A70DD88C59F3265B8E24F1F7
:10011000A570DA0F20F55F8ADE0BA17409DC76A3E7
:10012000F722885DD603A97C28FD5782FF2A8055D7
:1001300001D47EAB8451FB2E7AAF05D0AD78D207C7
:1001400053862CF90000000036000202020202026F
:100150000202020201020408102020041008010219
:10016000000004000000000011241FBECFE5D1E014
:10017000DEBFCDBF20E0A0E6B0E001C01D92AA36F0
:10018000B207E1F731D3BFC53BCF823089F018F415
:10019000813051F00895833019F0843009F00895CA
:1001A0008CB58F7D8CBD08958AB58F778ABD0895F3
:1001B0008AB58F7DFBCFCF93DF93E0E6F1E08491AA
:1001C000E6E5F1E0D491ECE4F1E0C491CC2399F0C0
:1001D0008111DBDFEC2FF0E0EE0FFF1FEC5BFE4F39
:1001E000A591B491EC91ED2381E090E009F480E0D9
:1001F000DF91CF91089580E090E0FACF1F93CF93E5
:10020000DF93282F30E0F901E25AFE4F8491F90183
:10021000EC5AFE4FD491F901E65BFE4FC491CC231A
:10022000A1F0162F8111B1DFEC2FF0E0EE0FFF1FD0
:10023000EC5DFF4FA591B4918FB7F894EC9111113B
:1002400008C0D095DE23DC938FBFDF91CF911F9143
:100250000895DE2BF8CFCF93DF9390E0FC01EC5AAA
:10026000FE4F2491865B9E4FFC0184918823D1F040
:1002700090E0880F991FFC01E25EFF4FA591B491B9
:10028000FC01EC5DFF4FC591D49161110EC09FB789
:10029000F8948C91E22FE0958E238C932881E223B1
:1002A000E8839FBFDF91CF9108958FB7F894EC91C9
:1002B000E22BEC938FBFF6CF3FB7F89480916500A7
:1002C00090916600A0916700B091680022B708B6CF
:1002D00001FE05C02F3F19F00196A11DB11D3FBFC2
:1002E000BA2FA92F982F8827BC01CD01620F711D4D
:1002F000811D911D46E0660F771F881F991F4A9543
:10030000D1F708958F929F92AF92BF92CF92DF92D2
:10031000EF92FF926B017C01CFDF4B015C01C114B6
:10032000D104E104F104B1F0C7DF681979098A0941
:100330009B09683E73408105910588F321E0C21A4C
:10034000D108E108F10888EE880E83E0981EA11C10
:10035000B11CE5CFFF90EF90DF90CF90BF90AF90B2
:100360009F908F900895CF92DF92EF92FF920F931C
:100370001F93CF93DF93C82EEB0160E06CDF85E421
:1003800090E00197F1F734E0D32E9AEF9C0D809125
:1003900069008295807F892B87B9369A3699FECF7E
:1003A00084B1E5B0FE2CE82E8701DA94DD2021F03F
:1003B00080E8E816F10458F361E08C2D4CDF8D2DB8
:1003C00090E064E770E08ED48A3191053CF0469766
:1003D00096958795969587950197F1F788819981EC
:1003E000E816F90608F07C01F982E882C8018E1946
:1003F0009F09DF91CF911F910F91FF90EF90DF90B8
:10040000CF90089596B116B885B7877E806185BF75
:1004100085B7806285BFF8948BB780648BBF789472
:10042000889596B908958F929F92AF92BF92CF927E
:10043000DF92EF92FF92CF93DF936B01D594C79435
:100440000D2C000CEE08FF08D0E0C0E0882E912CA7
:10045000B12CA12CD501C4010C2E04C0B695A795D2
:10046000979587950A94D2F7682F617084E0C6DE6D
:1004700061E083E0C3DEC701B60144DF60E083E0F2
:10048000BDDEC701B6013EDF2196C830D10511F7A8
:1004900060E084E0DF91CF91FF90EF90DF90CF900C
:1004A000BF90AF909F908F90A9CECF93C82F61E05F
:1004B00084E0A4DE6AEF70E080E090E023DF60E09B
:1004C00084E09CDE6AEF70E080E090E01BDFC150CA
:1004D00071F7CF910895CF92DF92EF92FF920F9331
:1004E0001F93CF93DF93CDB7DEB7A0970FB6F894E5
:1004F000DEBF0FBECDBF9E012F5F3F4F690180E27F
:10050000D9011D928A95E9F710E000E1802F90E073
:10051000D3D38E3309F484C090F5212F30E08C3290
:1005200009F474C0B0F4863209F4A0C08B3209F427
:10053000C1C08132A9F4EFEFFFEFEC0FFD1FE20F16
:10054000F31F2C0F3D1FD9018C91608190E0BCD32B
:100550008BC0823309F4C4C038F48D3209F4B5C0BD
:10056000F601E10FF11DC3C08C3309F466C08D3371
:10057000B9F72C0F3D1FD9010C9101504FC087379F
:1005800009F4C3C0A8F4212F30E0803409F45DC021
:1005900008F4B0C08E3509F482C0823709F72150C3
:1005A0003109F601E20FF31FA081B0E08C9142C047
:1005B0008A3709F4BBC0A8F4883791F6812F90E000
:1005C000DC011197AC0DBD1D2C91F601E80FF91F50
:1005D00020830297F601E80FF91F80818C93208316
:1005E0002AC08C3709F44EC08F3F09F0B9CFA096CE
:1005F0000FB6F894DEBF0FBECDBFDF91CF911F9134
:100600000F91FF90EF90DF90CF9008952C0F3D1F3A
:10061000F901608170E090E080E074DE11500BC061
:10062000212F2150330BF901EC0DFD1D808190E04D
:100630009595879580830F5F69CF21503109F60129
:10064000E20FF31F8081880FF5CFF9013297EC0D8F
:10065000FD1D8081882341F0815080832C0F3D1F38
:10066000F901008101501F5F1250E5CFF901329767
:10067000EC0DFD1D2C0F3D1FD9018C91908189231C
:100680008083CCCF812F90E0FC013297EC0DFD1DD3
:100690008C0F9D1FDC018C919081892BF1CFF9018A
:1006A0003297EC0DFD1D2C0F3D1FD9018C919081CF
:1006B0008927E6CFF9013297EC0DFD1D2C0F3D1F68
:1006C000D9018C919081890FDBCFF9013297EC0D24
:1006D000FD1D2C0F3D1F8081D9019C91891BD0CF1E
:1006E000FE01E20FF31F80812C0D3D1DF901808377
:1006F0001F5FA1CF215031097601E20EF31ED70111
:100700008C9190E0D9D2F70195CF812F90E0FE0136
:10071000E80FF91FE081F0E02FEF3FEF2C0F3D1FB6
:10072000820F931FDC018C9180839ECF6BDE83CF81
:100730001F920F920FB60F9211242F933F938F9316
:100740009F93AF93BF938091610090916200A091BD
:100750006300B09164003091600020E3230F2D37D7
:1007600058F54096A11DB11D209360008093610053
:1007700090936200A0936300B09364008091650041
:1007800090916600A0916700B09168000196A11D4C
:10079000B11D8093650090936600A0936700B093AD
:1007A0006800BF91AF919F918F913F912F910F90D2
:1007B0000FBE0F901F90189523EB230F4196A11D9C
:1007C000B11DD2CF1F920F920FB60F9211248F93AB
:1007D0008BB78F7B8BBF85B78F7D85BF8F910F9038
:1007E0000FBE0F901F901895CF93DF93CDB7DEB754
:1007F00066970FB6F894DEBF0FBECDBF78948AB56A
:1008000082608ABD8AB581608ABD83B7826083BFFA
:1008100083B7816083BF89B7826089BF80B78260F8
:1008200080BF3298319A309A379A8CB580648CBDEB
:1008300010E061E0123009F460E0812F0CDD1F5FF1
:100840001630B9F7B8DC892B09F08AC04FE050E0C8
:1008500061E070E0CE01019620D2DE011196CE015A
:100860004096F12CED91EF25F0E0EC5BFF4FF4901A
:100870008A179B07B9F780E090E01ED2D82E01E0DE
:100880008F1100E089E0E1E0F0E080935700E49010
:1008900011E02CEFE21210E061E083E0AFDC8CEFBE
:1008A000E81202C061E0DF1060E084E0A7DC68EEDF
:1008B00073E080E090E026DD60E083E09FDC60E0B4
:1008C00084E09CDCEE24EA94F12C6FEFC701FCD1AC
:1008D00091E0E91AF1082FE0E216F104B1F7802F58
:1008E0008795882787951295110F110F107C812B02
:1008F00068EC70E0816097DD2AE230E08BE692E000
:1009000082278FBD64EF71E080E090E0FBDC88E03F
:100910008093690084B3886184BB8E010F5F1F4F91
:1009200071DDF12CE12C47DC892B61F561E083E07E
:1009300065DC61E084E062DC64E670E080E090E029
:10094000E1DC60E083E05ADC60E084E057DC64E6F0
:1009500070E080E090E0D6DC8FEFE81AF80AE3CF91
:1009600061E083E04BDC61E084E048DC62E370E05E
:1009700080E090E0C7DC60E083E040DC60E084E0A1
:100980003DDCC5CF9BE0E916F1040CF0A4DD8FEF50
:100990009FE79A8B898B9A838983E8E94E2EE8E05A
:1009A0005E2EB12CA12C912C812C312C212CF12CE0
:1009B000E12CD12CC12CFFDB892B09F460C0BE01D6
:1009C0006F5E7F4F88E0CFDC940165E03695279518
:1009D0006A95E1F7821B930B880E991E340175E02E
:1009E000769467947A95E1F7C614D7040CF4630102
:1009F000B80189E0B8DC950145E0369527954A9520
:100A0000E1F7821B930BA80EB91EC50155E0969520
:100A100087955A95E1F7E816F9060CF47C01211048
:100A20000BC09601B3E035952795BA95E1F76216AC
:100A300073068CF4F12CE12C9701A3E035952795F2
:100A4000AA95E1F7222423948217930724F4339480
:100A5000D12CC12C212C21E0421A510809F0ABCF36
:100A600084E0FF24FA94381689F092E0931538F464
:100A700029E08FEF830D231508F489E016DD80E06F
:100A800090E0892B09F44CCFBBDA4ACF6F2D61700F
:100A900083E0B4DB64E670E080E090E033DCFA945D
:100AA00089EFF812F3CF8FEF9FE79C8B8B8B9A8B9C
:100AB000898BD12CC12C712C612C1D8A412C512C7D
:100AC000312C1E8AF4E0EF2EF12C88E893E15C01D2
:100AD00021E0A21AB108892B91F26DDB892B79F202
:100AE000430163E0959487946A95E1F783E0880E6B
:100AF000911CBE016D5E7F4F88E035DC681679067B
:100B00000CF43C0122242394881699060CF0212C25
:100B1000BE016F5E7F4F89E026DC4601C816D9060C
:100B20000CF44C012E89221222C023E0E216F104BB
:100B300001F553E0D594C7945A95E1F723E0C20E2E
:100B4000D11C21E0C816D9060CF020E0330C322A63
:100B5000511016C055245394832D8F778B3409F090
:100B6000512C3CEF432E44E0E42EF12C05C0F12C37
:100B7000E12C9FEFE91AF90A64012E8AC501A7CF7B
:100B80004394411004C0832D8F708D8B4BC0842DF6
:100B9000877009F047C0842D47FE02C087E0840DAE
:100BA000E82EE594E594E5940E2C000CFF0867010F
:100BB00091E0C91AD108F801EC0DFD1D30822D8994
:100BC000A22EB12CEA14FB0469F564EF71E080E019
:100BD00090E098DB8D89823018F482E066DC21C0D9
:100BE0009D89D80180E0923029F5B9808A81282F2B
:100BF0002F70D22EDD0CD39490E024E0969587954B
:100C00002A95E1F761E270E06DD00A967C01C12C73
:100C10008B2D8C0D90E050D0B70105DCC394CD1422
:100C2000B8F3512C74E0E72EF12CE8E8AE2EE3E1A6
:100C3000BE2EA2CF9D01201B310B2C153D053CF48F
:100C4000ED91E827F0E0EC5BFF4F8491F3CFDE01FC
:100C5000AA0DBB1D9C91981711F083E0BFCFC980EE
:100C60008FE0D12C92E0E91AF1088C1510F084E0A5
:100C7000B5CFED2DF0E0EE15FF056CF482E090E0CD
:100C80008C0F9D1FE80FF91F8C2D8D0D608190E05A
:100C90001BD0D394EECF81E0A1CFDC01862FE82FCB
:100CA000E199FECF1FBA05C0EEBBE09AE3950DB205
:100CB0000D924150C8F70895E199FECF1FBA8EBB3F
:100CC000E09A99278DB30895262FE199FECF1CBA9B
:100CD0001FBA8EBB2DBB0FB6F894E29AE19A0FBEF5
:100CE000019608950024552704C0080E591F880F47
:100CF000991F009729F076956795B8F37105B9F7B4
:0A0D0000802D952F0895F894FFCF81
:00000001FF
